:10099C0060582000A2241797205502880E9F21DC56
:1009AC0069888000000820080647AE700800000027
:1009BC000000000001E0F2810000000200000004D1
:1009CC00A224A019285502880E9F31DC788880005B
:1009DC0000062008004CCD7008000000100000003C
:0C09EC0001E0F2810000000200000004A5
:100AAB00E490E68BF090E68AF022E0FCA3E0FDA355
:100ABB00E0FEA3E0F53E8E3D8D3C8C3B2290E74063
:100ACB00F0E490E68AF090E68B225391EF90E65D8E
:100ADB00225401FF120F3B1BC3EB648094802285D1
:100AEB00080C85090D85100E85110F2285100C85BC
:090AFB00110D85080E85090F227A
:0E0F1500E4FEEEC39F5004000E80F7000022A1
:1008E5007401A807088002C333D8FCFEF452B5E5AD
:0B08F500B05E60047F0180027F0022E3
:100E99007401A807088002C333D8FCFE42B5ED608F
:0A0EA90004EE42B022EEF452B02233
:100EB3007D017F02120E997F05120F151D7F02120D
:070EC3000E997F05020F15D7
:0A0F3B00AD077F03120E99020EB3FA
:0D0F23007F031208E5AC07120EB3AF0422E5
:100C3B008E3F8F40AC057B0BE540AE3FA803088091
:100C4B0005CEC313CE13D8F9120ADC50EBAF041246
:100C5B000F3BE4FBE4FF120F3B0BBB03F77F0502DB
:020C6B000F1563
:100D3100AA07AC05E4FD120E99AF047E00120C3B2C
:100D41007B1FAF3EAE3DAD3CAC3BA803120604EFAA
:0C0D5100120ADC50EDAF027D01020E9989
:1009F900AA07AB05E4F53CF53BF53AF539FD120ECE
:100A090099AF037E000D120C3B7B1FAF3CAE3BAD93
:100A19003AAC3978011206178F3C8E3B8D3A8C39E6
:100A2900120F23E53C4FF53CE53BF53BE53AF53A3A
:100A3900E539F539120AE250D2AF027D01120E9959
:090A4900AF3CAE3BAD3AAC3922E2
:100C6D0090E6047480F0000000E490E61AF00000B5
:100C7D000090E6047406F000000090E61A740CF083
:100C8D00000000E490E604F00000007D017F070203
:020C9D000E99AE
:100F050090E61A7404F0000000E4FD7F07020E99D4
:100DB4008E398F3A8D3B8A3C8B3DE53990205CF02F
:100DC400EFA3F07A207B5C7D027F51120E62AB3D73
:090DD400AA3CAD3B7F51020E4622
:100B04008E398F3A8D3B8A3C8B3DE4F53EE53EC3FE
:100B1400953B5036E53990205CF0E53AA3F0E53D8D
:100B2400253EF582E4353CF583E090205EF07A20A2
:100B34007B5C7D037F51120E627F51120BCF053E09
:0B0B4400053AE53A70C7053980C3226E
:100B9500E4F535E4F536E53575F02CA42400F58249
:100BA500E43420F58375F004E53612066A120AB5B9
:100BB500AD36AF35120D310536E536C3940B40D64B
:0A0BC5000535E535C3940240CA224D
:1006760075353F7536047F007E3F1206D77FBA7EFA
:100686000C7DC07CAB902058E0F8A3E0F9A3E0FA1B
:10069600A3E0FBC31205F37037E4F537E4F538AF92
:1006A60036AE351206D7902058120AB5AD38AF3798
:1006B600120D3174042536F536E43535F535053831
:1006C600E538C3940B40D80537E537C3940240CCD0
:0B06D600227A207B587D04120DB42214
:100A520075353F753604902058120636ABC00CBA75
:100A62007F007E3F120AA1E4F537E4F538AD38AFD6
:100A7200371209F990205812062AAF36AE35120AFB
:100A8200A174042536F536E43535F5350538E538F3
:100A9200C3940B40D80537E537C3940240CC227A81
:090AA200207B587D04120B042294
:1007B80090E6007412F0000000E490E618F00000E3
:1007C8000090E619F000000090E61AF00000009092
:1007D800E61BF000000090E6017453F00000009062
:1007E800E60B7403F000000090E6127420F000009D
:1007F8000090E613F000000090E61474E0F00000AA
:100808000090E6157460F0000000E490E609F0003E
:10081800000090E6247402F0000000E490E625F061
:1008280000000090E6047486F0000000E4F0000088
:10083800007D01FF120E990F120E991D0F120E99CD
:10084800120F71120B951206767FFF120F15020C0C
:010858006D32
:100E7E007F041208E5EF600C7F051208E5EF6004B1
:0B0E8E007D0180027D007F06020E99AE
:1004AB0090E6BFE0FE90E6BEE07C002400F532EC67
:1004BB003EF53190E6BBE0FE90E6BAE02400F53461
:1004CB00EC3EF53390E6B9E06440702E90E7407453
:1004DB0010F0A3745DF0A374C0F07F041208E5A3C1
:1004EB00EFF07F051208E5A3EFF07F071208E5A3F5
:1004FB00EF120ACB7406F00205A290E6B9E0B44104
:10050B001C90E6BBE0FF90E6BAE0FD1209F990E71C
:10051B004012062A120ACC7404F00205A290E6B926
:10052B00E064427031C3E5329404E531940050012C
:10053B0022120AAB90E6A0E020E1F990E740E0FC44
:10054B00A3E0FDA3E0FE120ABD90E6BAE0FDA3E036
:10055B00FF120D31804190E6B9E0B44408120AABAA
:10056B00120C6D803290E6B9E0B44508120AAB125A
:10057B000F05802390E6B9E0B4460B120AAB120FBD
:10058B00051207B8801190E6B9E0B44708120AAB20
:09059B00120A528002D322C3228D
:050F7900D2000207B8E0
:0306FD00020E7E6C
:020F8600D32274
:020F8800D32272
:020F8A00D32270
:020F8C00D3226E
:020F8E00D3226C
:020F9000D3226A
:040F7E001204AB228C
:080F610090E6BAE0F51DD32271
:080F690090E6BAE0F51CD3226A
:090F4F00E51D120AC804F0D322CA
:090F5800E51C120AC804F0D322C2
:1006E100C0E0C083C08290E6B5E04401F0D20112BF
:0C06F1000AD57401F0D082D083D0E03232
:100EDF00C0E0C083C082120AD57404F0D082D083E0
:030EEF00D0E0321E
:100EF200C0E0C083C082120AD57402F0D082D083CF
:030F0200D0E0320A
:100E0200C0E0C083C08290E680E030E705120AEAC3
:100E12008003120AF7120AD57410F0D082D083D060
:020E2200E032BC
:100ECA00C0E0C083C082D203120AD57408F0D0826F
:050EDA00D083D0E032DE
:100E2400C0E0C083C08290E680E030E705120AEAA1
:100E34008003120AF7120AD57420F0D082D083D02E
:020E4400E0329A
:010F9200322C
:010F9300322B
:010F9400322A
:010F95003229
:010F96003228
:010F97003227
:010F98003226
:010F99003225
:010F9A003224
:010F9B003223
:010F9C003222
:010F9D003221
:010F9E003220
:010F9F00321F
:010FA000321E
:010FA100321D
:010FA200321C
:010FA300321B
:010FA400321A
:010FA5003219
:010FA6003218
:010FA7003217
:010FA8003216
:010FA9003215
:010FAA003214
:010FAB003213
:010FAC003212
:010FAD003211
:010FAE003210
:010FAF00320F
:010FB000320E
:010FB100320D
:010FB200320C
:010FB300320B
:010FB400320A
:010FB5003209
:0A0F45000001020203030404050585
:100CD100EC4EFEED4F2445F582740F3EF583E4930F
:100CE100FF3395E0FEEF24A1FFEE34E68F82F5831A
:100CF1002290E6BCE0547EFF7E00E0D394807C002D
:010D010022CF
:10023C00E4F52CF52BF52AF529C203C200C202C243
:10024C0001120F797E097F008E0A8F0B75120975CA
:10025C00131275080975091C75100975114A751466
:10026C0009751578EE54C0700302033D752D0075A9
:10027C002E808E2F8F30C3749A9FFF74099ECF24CB
:10028C0002CF3400FEE48F288E27F526F525F524C1
:10029C00F523F522F521AF28AE27AD26AC25AB24EE
:1002AC00AA23A922A821C31205F35033E530252433
:1002BC00F582E52F3523F583E0FFE52E2524F58225
:1002CC00E52D3523F583EFF0E5242401F524E43501
:1002DC0023F523E43522F522E43521F52180B78579
:1002EC002D0A852E0B74002480FF740934FFFEC385
:1002FC00E5139FF513E5129EF512C3E50D9FF50D61
:10030C00E50C9EF50CC3E50F9FF50FE50E9EF50E63
:10031C00C3E5099FF509E5089EF508C3E5119FF5AE
:10032C0011E5109EF510C3E5159FF515E5149EF526
:10033C0014D2E843D82090E668E04409F090E65CDB
:10034C00E0443DF0D2AF90E680E020E105D204120B
:10035C000D0290E680E054F7F0538EF8C2031206BB
:10036C00FD300105120080C2013003F2120F8650DD
:10037C00EDC203120DDD20001690E682E030E7049A
:10038C00E020E1EF90E682E030E604E020E0E412C9
:07039C000D5D120F8880C700
:0B0F300090E509E030E402C322D32268
:1000800090E6B9E0700302013F147003020193246B
:10009000FE70030201ED24FB7003020139147003AA
:1000A00002013314700302012714700302012D248E
:1000B000056003020228120F8A400302023490E610
:1000C000BBE024FE602714603824FD601114602713
:1000D00024067050E50A90E6B3F0E50B803C120F61
:1000E00030503EE51290E6B3F0E513802DE50C901C
:1000F000E6B3F0E50D8023E50E90E6B3F0E50F8062
:100100001990E6BAE0FF120D89AA06A9077B01EA59
:10011000494B600DEE90E6B3F0EF90E6B4F00202CA
:1001200034020223020223120F58020234120F6912
:10013000020234120F61020234120F4F0202341213
:100140000F8C400302023490E6B8E0247F6015145F
:1001500060192402703AA200E43325E0FFA202E411
:10016000334F8018E490E740F08016120CF2400400
:100170007D0180027D00120CD1E0540190E740F037
:10018000E4A3F090E68AF090E68B7402F002023469
:10019000020223120F8E400302023490E6B8E024DC
:1001A000FE60162402600302023490E6BAE0B40155
:1001B00005C20002023402022390E6BAE0702C125B
:1001C0000CF240047D0180027D00120CD1E054FE4F
:1001D000F090E6BCE05480131313541FFFE0540F5B
:1001E0002F90E683F0E04420F080498036120F9093
:1001F000504290E6B8E024FE60192402702590E693
:10020000BAE0B40104D200802B90E6BAE064026048
:10021000238010120CF240047D0180027D00120C3C
:10022000D1800D90E6A08008120F7E500790E6A0C6
:0C023000E04401F090E6A0E04480F022E1
:03003300020F8237
:040F820053D8EF321F
:03004300020700B1
:03005300020700A1
:100700000206E100020EF200020EDF00020ECA0035
:10071000020E0200020E2400020F9200020F93004C
:10072000020F9400020F9500020F9600020F97002F
:10073000020F9800020F9900020F9A00020F9B000F
:10074000020F9C00020F9300020F9D00020F9E00FB
:10075000020F9F00020FA000020FA100020FA200D3
:10076000020FA300020F9300020F9300020F9300E9
:10077000020FA400020FA500020FA600020FA7009F
:10078000020FA800020FA900020FAA00020FAB007F
:10079000020FAC00020FAD00020FAE00020FAF005F
:1007A000020FB000020FB100020FB200020FB3003F
:0807B000020FB400020FB500B6
:100D5D0090E682E030E004E020E60B90E682E030A1
:100D6D00E119E030E71590E680E04401F07F147E54
:0C0D7D0000120B4F90E680E054FEF022C4
:100D020030040990E680E0440AF0800790E680E033
:100D12004408F07FDC7E05120B4F90E65D74FFF015
:0F0D220090E65FF05391EF90E680E054F7F022F7
:080F7100E4F51BD2E9D2AF2226
:100BCF00AD0790E678E020E6F9C2E990E678E044D8
:100BDF0080F0ED25E090E679F090E678E030E0F9EE
:100BEF0090E678E04440F090E678E020E6F990E671
:080BFF0078E030E1D6D2E922D2
:100C9F00AC0790E678E020E6F9E51B702390E67844
:100CAF00E04480F0EC25E090E679F08D16AF03A9D3
:100CBF00077517018A188919E4F51A751B01D322D4
:020CCF00C3223E
:100C0700AC0790E678E020E6F9E51B702590E678DA
:100C1700E04480F0EC25E0440190E679F08D16AFD2
:100C270003A9077517018A188919E4F51A751B03B3
:040C3700D322C322DF
:03004B000203A30A
:1003A300C0E0C083C082C085C084C086758600C09B
:1003B300D075D000C000C001C002C003C006C00792
:1003C30090E678E030E206751B0602048D90E6782D
:1003D300E020E10CE51B64026006751B0702048D37
:1003E300E51B24FE605F14603624FE700302047E66
:1003F30024FC700302048A2408600302048DAB17F3
:10040300AA18A919AF1A051A8F827583001205A4B9
:1004130090E679F0E51A65167070751B05806B9090
:10042300E679E0AB17AA18A919AE1A8E8275830074
:100433001205D1751B02E5166401704E90E678E053
:100443004420F08045E51624FEB51A0790E678E0CF
:100453004420F0E51614B51A0A90E678E04440F01B
:10046300751B0090E679E0AB17AA18A919AE1A8E8E
:10047300827583001205D1051A800F90E678E04457
:1004830040F0751B008003751B005391DFD007D02C
:1004930006D003D002D001D000D0D0D086D084D0F3
:0804A30085D082D083D0E03245
:020D8900A907B8
:100D8B00AE14AF158F828E83A3E064037017AD0191
:100D9B0019ED7001228F828E83E07C002FFDEC3EDB
:080DAB00FEAF0580DFE4FEFF4E
:010DB300221D
:100E4600120C07E51B24FA600E146006240770F3E3
:0C0E5600D322E4F51BD322E4F51BD322C9
:100E6200120C9FE51B24FA600E146006240770F32F
:0C0E7200D322E4F51BD322E4F51BD322AD
:100DDD0090E682E044C0F090E681F0438701000088
:040DED0000000022E0
:100B4F008E318F3290E600E054187012E532240196
:100B5F00FFE43531C313F531EF13F532801590E60D
:100B6F0000E05418FFBF100BE53225E0F532E531F8
:100B7F0033F531E5321532AE31700215314E600565
:060B8F00120DF180EE22C0
:100DF1007400F58690FDA57C05A3E582458370F915
:010E010022CE
:100900001201000200000040B404041000000102C3
:1009100000010A06000200000040010009022E004A
:1009200001010080320904000004FF0000000705F7
:100930000202000200070504020002000705860209
:100940000002000705880200020009022E000101D2
:100950000080320904000004FF00000007050202C5
:100960004000000705040240000007058602400021
:100970000007058802400000040309041003430037
:100980007900700072006500730073000E0345006B
:0C0990005A002D005500530042000000EA
:030000000208599A
:0C085900787FE4F6D8FD7581400208A00D
:1005A400BB010CE58229F582E5833AF583E022500C
:1005B40006E92582F8E622BBFE06E92582F8E22256
:0D05C400E58229F582E5833AF583E4932270
:1005D100F8BB010DE58229F582E5833AF583E8F060
:1005E100225006E92582C8F622BBFE05E92582C80C
:0205F100F222F4
:1005F300EB9FF5F0EA9E42F0E99D42F0E89C45F05E
:0106030022D4
:10060400E8600FECC313FCED13FDEE13FEEF13FFD4
:03061400D8F122F8
:10061700E8600FEFC333FFEE33FEED33FDEC33FC41
:03062700D8F122E5
:0C062A00ECF0A3EDF0A3EEF0A3EFF02243
:10063600A8828583F0D083D082120650120650120B
:100646000650120650C082C08322E493A3C583C518
:10065600F0C583C8C582C8F0A3C583C5F0C583C8E5
:04066600C582C8225F
:0C066A00A42582F582E5F03583F583229B
:1008650002023CE493A3F8E493A34003F68001F26B
:1008750008DFF48029E493A3F85407240CC8C33394
:10088500C4540F4420C8834004F456800146F6DF63
:10089500E4800B010204081020408090099CE47E4E
:1008A500019360BCA3FF543F30E509541FFEE49358
:1008B500A360010ECF54C025E060A840B8E493A31F
:1008C500FAE493A3F8E493A3C8C582C8CAC583CA4A
:1008D500F0A3C8C582C8CAC583CADFE9DEE780BE02
:0109F80000FE
:00000001FF
